{
  "_format": "hh-sol-artifact-1",
  "contractName": "ChainProof",
  "sourceName": "contracts/ChainProof.sol",
  "abi": [
    {
      "inputs": [],
      "stateMutability": "nonpayable",
      "type": "constructor"
    },
    {
      "anonymous": false,
      "inputs": [
        {
          "indexed": true,
          "internalType": "uint256",
          "name": "id",
          "type": "uint256"
        },
        {
          "indexed": true,
          "internalType": "address",
          "name": "handler",
          "type": "address"
        },
        {
          "indexed": false,
          "internalType": "uint256",
          "name": "timestamp",
          "type": "uint256"
        }
      ],
      "name": "BatchConsumed",
      "type": "event"
    },
    {
      "anonymous": false,
      "inputs": [
        {
          "indexed": true,
          "internalType": "uint256",
          "name": "id",
          "type": "uint256"
        },
        {
          "indexed": true,
          "internalType": "address",
          "name": "creator",
          "type": "address"
        },
        {
          "indexed": false,
          "internalType": "uint256",
          "name": "quantity",
          "type": "uint256"
        },
        {
          "indexed": false,
          "internalType": "string",
          "name": "trackingCode",
          "type": "string"
        },
        {
          "indexed": false,
          "internalType": "uint256",
          "name": "timestamp",
          "type": "uint256"
        }
      ],
      "name": "BatchHarvested",
      "type": "event"
    },
    {
      "anonymous": false,
      "inputs": [
        {
          "indexed": false,
          "internalType": "uint256[]",
          "name": "inputBatchIds",
          "type": "uint256[]"
        },
        {
          "indexed": true,
          "internalType": "uint256",
          "name": "outputBatchId",
          "type": "uint256"
        },
        {
          "indexed": true,
          "internalType": "address",
          "name": "handler",
          "type": "address"
        },
        {
          "indexed": false,
          "internalType": "uint256",
          "name": "timestamp",
          "type": "uint256"
        }
      ],
      "name": "BatchMerged",
      "type": "event"
    },
    {
      "anonymous": false,
      "inputs": [
        {
          "indexed": true,
          "internalType": "uint256",
          "name": "id",
          "type": "uint256"
        },
        {
          "indexed": true,
          "internalType": "address",
          "name": "receiver",
          "type": "address"
        },
        {
          "indexed": false,
          "internalType": "uint256",
          "name": "timestamp",
          "type": "uint256"
        }
      ],
      "name": "BatchReceived",
      "type": "event"
    },
    {
      "anonymous": false,
      "inputs": [
        {
          "indexed": true,
          "internalType": "uint256",
          "name": "parentId",
          "type": "uint256"
        },
        {
          "indexed": false,
          "internalType": "uint256[]",
          "name": "childIds",
          "type": "uint256[]"
        },
        {
          "indexed": true,
          "internalType": "address",
          "name": "handler",
          "type": "address"
        },
        {
          "indexed": false,
          "internalType": "uint256",
          "name": "timestamp",
          "type": "uint256"
        }
      ],
      "name": "BatchSplit",
      "type": "event"
    },
    {
      "anonymous": false,
      "inputs": [
        {
          "indexed": true,
          "internalType": "uint256",
          "name": "id",
          "type": "uint256"
        },
        {
          "indexed": true,
          "internalType": "address",
          "name": "from",
          "type": "address"
        },
        {
          "indexed": true,
          "internalType": "address",
          "name": "to",
          "type": "address"
        },
        {
          "indexed": false,
          "internalType": "uint256",
          "name": "timestamp",
          "type": "uint256"
        }
      ],
      "name": "BatchTransferInitiated",
      "type": "event"
    },
    {
      "anonymous": false,
      "inputs": [
        {
          "indexed": false,
          "internalType": "uint256[]",
          "name": "inputBatchIds",
          "type": "uint256[]"
        },
        {
          "indexed": true,
          "internalType": "uint256",
          "name": "outputBatchId",
          "type": "uint256"
        },
        {
          "indexed": false,
          "internalType": "string",
          "name": "processType",
          "type": "string"
        },
        {
          "indexed": true,
          "internalType": "address",
          "name": "handler",
          "type": "address"
        },
        {
          "indexed": false,
          "internalType": "uint256",
          "name": "timestamp",
          "type": "uint256"
        }
      ],
      "name": "BatchTransformed",
      "type": "event"
    },
    {
      "anonymous": false,
      "inputs": [
        {
          "indexed": true,
          "internalType": "address",
          "name": "account",
          "type": "address"
        },
        {
          "indexed": true,
          "internalType": "enum ChainProof.Role",
          "name": "role",
          "type": "uint8"
        },
        {
          "indexed": true,
          "internalType": "address",
          "name": "assignedBy",
          "type": "address"
        },
        {
          "indexed": false,
          "internalType": "uint256",
          "name": "timestamp",
          "type": "uint256"
        }
      ],
      "name": "RoleAssigned",
      "type": "event"
    },
    {
      "inputs": [
        {
          "internalType": "address",
          "name": "account",
          "type": "address"
        },
        {
          "internalType": "enum ChainProof.Role",
          "name": "role",
          "type": "uint8"
        }
      ],
      "name": "assignRole",
      "outputs": [],
      "stateMutability": "nonpayable",
      "type": "function"
    },
    {
      "inputs": [],
      "name": "batchCount",
      "outputs": [
        {
          "internalType": "uint256",
          "name": "",
          "type": "uint256"
        }
      ],
      "stateMutability": "view",
      "type": "function"
    },
    {
      "inputs": [
        {
          "internalType": "uint256",
          "name": "",
          "type": "uint256"
        }
      ],
      "name": "batches",
      "outputs": [
        {
          "internalType": "uint256",
          "name": "id",
          "type": "uint256"
        },
        {
          "internalType": "address",
          "name": "creator",
          "type": "address"
        },
        {
          "internalType": "string",
          "name": "origin",
          "type": "string"
        },
        {
          "internalType": "string",
          "name": "ipfsHash",
          "type": "string"
        },
        {
          "internalType": "uint256",
          "name": "quantity",
          "type": "uint256"
        },
        {
          "internalType": "string",
          "name": "trackingCode",
          "type": "string"
        },
        {
          "internalType": "enum ChainProof.BatchStatus",
          "name": "status",
          "type": "uint8"
        },
        {
          "internalType": "uint256",
          "name": "createdAt",
          "type": "uint256"
        },
        {
          "internalType": "uint256",
          "name": "updatedAt",
          "type": "uint256"
        },
        {
          "internalType": "address",
          "name": "currentHandler",
          "type": "address"
        }
      ],
      "stateMutability": "view",
      "type": "function"
    },
    {
      "inputs": [
        {
          "internalType": "string",
          "name": "trackingCode",
          "type": "string"
        }
      ],
      "name": "getBatchIdByTrackingCode",
      "outputs": [
        {
          "internalType": "uint256",
          "name": "",
          "type": "uint256"
        }
      ],
      "stateMutability": "view",
      "type": "function"
    },
    {
      "inputs": [
        {
          "internalType": "uint256",
          "name": "batchId",
          "type": "uint256"
        }
      ],
      "name": "getChildBatches",
      "outputs": [
        {
          "internalType": "uint256[]",
          "name": "",
          "type": "uint256[]"
        }
      ],
      "stateMutability": "view",
      "type": "function"
    },
    {
      "inputs": [
        {
          "internalType": "uint256",
          "name": "batchId",
          "type": "uint256"
        }
      ],
      "name": "getParentBatches",
      "outputs": [
        {
          "internalType": "uint256[]",
          "name": "",
          "type": "uint256[]"
        }
      ],
      "stateMutability": "view",
      "type": "function"
    },
    {
      "inputs": [
        {
          "internalType": "string",
          "name": "origin",
          "type": "string"
        },
        {
          "internalType": "string",
          "name": "ipfsHash",
          "type": "string"
        },
        {
          "internalType": "uint256",
          "name": "quantity",
          "type": "uint256"
        },
        {
          "internalType": "string",
          "name": "trackingCode",
          "type": "string"
        }
      ],
      "name": "harvestBatch",
      "outputs": [
        {
          "internalType": "uint256",
          "name": "newBatchId",
          "type": "uint256"
        }
      ],
      "stateMutability": "nonpayable",
      "type": "function"
    },
    {
      "inputs": [
        {
          "internalType": "uint256",
          "name": "batchId",
          "type": "uint256"
        },
        {
          "internalType": "address",
          "name": "to",
          "type": "address"
        }
      ],
      "name": "initiateTransfer",
      "outputs": [],
      "stateMutability": "nonpayable",
      "type": "function"
    },
    {
      "inputs": [
        {
          "internalType": "uint256[]",
          "name": "inputBatchIds",
          "type": "uint256[]"
        },
        {
          "internalType": "string",
          "name": "outputOrigin",
          "type": "string"
        },
        {
          "internalType": "string",
          "name": "outputIpfsHash",
          "type": "string"
        },
        {
          "internalType": "uint256",
          "name": "outputQuantity",
          "type": "uint256"
        },
        {
          "internalType": "string",
          "name": "outputTrackingCode",
          "type": "string"
        }
      ],
      "name": "mergeBatches",
      "outputs": [
        {
          "internalType": "uint256",
          "name": "outputBatchId",
          "type": "uint256"
        }
      ],
      "stateMutability": "nonpayable",
      "type": "function"
    },
    {
      "inputs": [],
      "name": "owner",
      "outputs": [
        {
          "internalType": "address",
          "name": "",
          "type": "address"
        }
      ],
      "stateMutability": "view",
      "type": "function"
    },
    {
      "inputs": [
        {
          "internalType": "uint256",
          "name": "",
          "type": "uint256"
        }
      ],
      "name": "pendingRecipients",
      "outputs": [
        {
          "internalType": "address",
          "name": "",
          "type": "address"
        }
      ],
      "stateMutability": "view",
      "type": "function"
    },
    {
      "inputs": [
        {
          "internalType": "uint256",
          "name": "batchId",
          "type": "uint256"
        }
      ],
      "name": "receiveBatch",
      "outputs": [],
      "stateMutability": "nonpayable",
      "type": "function"
    },
    {
      "inputs": [
        {
          "internalType": "address",
          "name": "",
          "type": "address"
        }
      ],
      "name": "roles",
      "outputs": [
        {
          "internalType": "enum ChainProof.Role",
          "name": "",
          "type": "uint8"
        }
      ],
      "stateMutability": "view",
      "type": "function"
    },
    {
      "inputs": [
        {
          "internalType": "uint256",
          "name": "parentId",
          "type": "uint256"
        },
        {
          "internalType": "uint256[]",
          "name": "childQuantities",
          "type": "uint256[]"
        },
        {
          "internalType": "string[]",
          "name": "childIpfsHashes",
          "type": "string[]"
        },
        {
          "internalType": "string[]",
          "name": "childTrackingCodes",
          "type": "string[]"
        }
      ],
      "name": "splitBatch",
      "outputs": [
        {
          "internalType": "uint256[]",
          "name": "newChildIds",
          "type": "uint256[]"
        }
      ],
      "stateMutability": "nonpayable",
      "type": "function"
    },
    {
      "inputs": [
        {
          "internalType": "uint256[]",
          "name": "inputBatchIds",
          "type": "uint256[]"
        },
        {
          "internalType": "string",
          "name": "outputOrigin",
          "type": "string"
        },
        {
          "internalType": "string",
          "name": "outputIpfsHash",
          "type": "string"
        },
        {
          "internalType": "uint256",
          "name": "outputQuantity",
          "type": "uint256"
        },
        {
          "internalType": "string",
          "name": "outputTrackingCode",
          "type": "string"
        },
        {
          "internalType": "string",
          "name": "processType",
          "type": "string"
        }
      ],
      "name": "transformBatches",
      "outputs": [
        {
          "internalType": "uint256",
          "name": "outputBatchId",
          "type": "uint256"
        }
      ],
      "stateMutability": "nonpayable",
      "type": "function"
    }
  ],
  "bytecode": "0x6080806040523461002857600080546001600160a01b03191633179055611f1f908161002e8239f35b600080fdfe608060408181526004908136101561001657600080fd5b600092833560e01c90816306f13056146110f9575080631adab81f146110935780633a371b8e14610e275780635064c68e14610cc857806352b86f1714610b85578063630a195b14610a935780638da5cb5b14610a6b57806390777069146108f4578063993746421461089a578063ae60466e14610847578063b08dcc4c14610815578063b32c4d8d14610710578063db9ab2e014610299578063e9cee4b9146101495763efff8afc146100c957600080fd5b3461014557602091826003193601126101415735835260078252808320815190819485928583549182815201928252858220915b8682821061012a57859061012688610117848903856111fb565b51928284938452830190611115565b0390f35b8354855288955090930192600192830192016100fd565b8380fd5b8280fd5b50903461014557602091826003193601126101415781359182855260038452610176828620541515611317565b828552808452818520546001600160a01b03163303610259573385526002845260ff82862054166006811015610246571561020e57907fc05b1107d1bf72ae261838a5b0823760327225f4b8d752559fa509a801beb14e91838652600385528186209060098201916001600160601b0360a01b923384825416179055600842910155855281862090815416905551924284523393a380f35b83606492519162461bcd60e51b83528201526014602482015273526563656976657220686173206e6f20726f6c6560601b6044820152fd5b634e487b7160e01b865260218252602486fd5b8380606493519262461bcd60e51b845283015260248201527f4e6f2070656e64696e67207472616e7366657220666f722072656365697665726044820152fd5b5091903461070c57608036600319011261070c5760249281356001600160401b038535818111610708576102d09036908601611164565b9590946044928335818111610141576102ec9036908401611164565b9890976064928335908111610708576103089036908601611164565b99909133875260209a60028c5260ff8b8920541695600696600681101561064f5780600261033f92149081156106fd575b506113bb565b8a895260038d526103548c8a20541515611317565b8a895260038d528b892060090154610376906001600160a01b0316331461135a565b60018611156106a657858e14828f8261069c575b505015610661578a895260038d5260ff60068d8b20015416600281101561064f5761060d5788998d8a9b5b88811061057f57506003908d8c52528c8a209a898c0154036105295750506103df859993996114dd565b9c8c8c519e8f906103f090826111fb565b878152601f196103ff896114dd565b0191369101378893600201935b868110610471578e8e6101268f8f61042381611e1c565b8151908282527fdea0c1111f46fe61193052d6fc5cb110975b4c7c343f300b93cd511f203fb3ec61045684840188611115565b9242878201528033940390a351928284938452830190611115565b8b8f8f8f8b908f8f906104f5946104d88f8f8f8f8f918f8f926104b9846104c1966104b2826104aa60079f996104c9986104d19b6114f4565b9c9096611485565b35986114f4565b959093611232565b96369161143f565b92369161143f565b923361198a565b97889586855282526104ec81868620611535565b83525220611535565b5182101561051657908f918f610511938360051b0101526114ce565b61040c565b50634e487b7160e01b8a52603289528f8afd5b8f6084928f8f93602b6a6e74207175616e7469747960a81b947f53706c6974207175616e746974696573206d757374206d617463682070617265938f97519762461bcd60e51b8952880152860152840152820152fd5b9b905061058d8c8987611485565b35156105b9576105ac6105b2916105a58e8b89611485565b35906114ab565b9b6114ce565b8e906103b5565b508f6084928f8f9360286768616e207a65726f60c01b947f4368696c64207175616e74697479206d75737420626520677265617465722074938f97519762461bcd60e51b8952880152860152840152820152fd5b92505050847f506172656e7420626174636820616c726561647920636f6e73756d656400000088601d8f8e8e519562461bcd60e51b8752860152840152820152fd5b634e487b7160e01b8a52602189528f8afd5b925050508475092dce0eae840d8cadccee8d0e640dad2e6dac2e8c6d60531b8860168f8e8e519562461bcd60e51b8752860152840152820152fd5b149050828f61038a565b60848f6b68696c64206261746368657360a01b8f8f8e602c8e9588947f53706c6974206d75737420637265617465206174206c656173742074776f206394519762461bcd60e51b8952880152860152840152820152fd5b600391501438610339565b8580fd5b5080fd5b50823461081257602036600319011261081257816001600960086107d7600760ff6107c460066107b661078d60058e8c8e823581526003602052209b8c9b8c9b8c9a8b9a8b998a9889988998610783600361077c60028d549d8d8060a01b039d8e910154169e01611232565b9d01611232565b9d01549f01611232565b9c0154169d01549d01549d0154169c519e8f6101409384938252602082015201528d01906112d7565b908b820360608d01526112d7565b9160808a015288820360a08a01526112d7565b9460028210156107ff575085965060c086015260e08501526101008401526101208301520390f35b634e487b7160e01b815260218852602490fd5b80fd5b50903461014557602036600319011261014557803583526020908152918190205490516001600160a01b039091168152f35b5090346101455760203660031901126101455780356001600160401b038111610141579261088561087e8493602096369101611194565b369161143f565b84815191012081526005845220549051908152f35b5082903461070c57602036600319011261070c576001600160a01b036108be611149565b168252600260205260ff818320541690519160068210156108e157602083838152f35b634e487b7160e01b815260218452602490fd5b5082903461070c57608036600319011261070c576001600160401b038335818111610141576109269036908601611194565b602495919535838111610708576109409036908401611194565b96909160443594606435908111610a675761095e9036908601611194565b949097338152600260205260ff8882205416906006821015610a545750600161098791146113bb565b8515610a065750602097856109d17fc5b9c8d98697e81c5d04d0c935e87beb5c11a69bc2050284c0efc1a0890ea2ed956109c96109f4966109dc96369161143f565b93369161143f565b6104d136888c61143f565b9586938651958652606089870152606086019161141e565b9242858201528033940390a351908152f35b608490602088519162461bcd60e51b8352820152602260248201527f5175616e74697479206d7573742062652067726561746572207468616e207a65604482015261726f60f01b6064820152fd5b634e487b7160e01b815260218352602490fd5b8780fd5b83823461070c578160031936011261070c57905490516001600160a01b039091168152602090f35b5034610145578060031936011261014557610aac611149565b90602435916006831015610b815784546001600160a01b03919082163303610b515716928315610b1d5750828452600260205280842060ff1981541660ff841617905551914283527f7f872576a2d85fdf3f23d2c08ca57bea427eb91bc3a4187594b900ea63e7c07d60203394a480f35b6020606492519162461bcd60e51b8352820152600f60248201526e496e76616c6964206164647265737360881b6044820152fd5b825162461bcd60e51b8152602081870152600a60248201526927b7363c9037bbb732b960b11b6044820152606490fd5b8480fd5b5082346108125760c0366003190112610812576001600160401b03833581811161014557610bb69036908601611164565b92909160243581811161014557610bd09036908801611194565b91604435818111610b8157610be89036908a01611194565b608493919335838111610cc457610c029036908c01611194565b94909360a435908111610a6757610c1c9036908d01611194565b969097338152600260205260ff8c82205416906006821015610cb1575094610ca49a989460209c9a9894610c90947f2f8155046dbe1c81216967557bafdb4250d30ea9b7028bd16febca232dbe7b6d9994610c858a60026109f49c149081156106fd57506113bb565b606435938d8d61167c565b9788958851976060895260608901916113fa565b918683038a88015261141e565b634e487b7160e01b815260218e52602490fd5b8680fd5b5091903461070c5760a036600319011261070c576001600160401b0390803582811161014157610cfb9036908301611164565b93909260243581811161014557610d159036908501611194565b9091604435818111610b8157610d2e9036908701611194565b92909160843590811161070857610d489036908801611194565b969095338152600260205260ff8b82205416906006821015610a545750806002610d7a92149081156106fd57506113bb565b6001891115610de4576020610dd28b8b8b7fa2d599747110593c4bea75d3acf874dad08cb38d15bfd96a242f21de61ba80b5610dc08d8d8d8d8d8d606435938a8a61167c565b948592855194868652868601916113fa565b9242878201528033940390a351908152f35b60649060208b519162461bcd60e51b8352820152601f60248201527f4d65726765206e65656473206174206c656173742074776f20696e70757473006044820152fd5b5034610145578060031936011261014557813560249182359360018060a01b0393848616809603610cc457838752610e8360209560038752610e6d858a20541515611317565b858952600387526009858a20015416331461135a565b3387526002855260ff83882054166006811015610fac57151580611072575b15611032578515610ffe57338614610fbe578587526002855260ff83882054166006811015610fac5715610f745733875260028552610ef160ff848920541687895260ff858a20541690611563565b15610f3b5750828652835280852080546001600160a01b031916851790555142815233927fcfdff10f4f990d2960cfecf898130d08b9758d10bad2bff71268688952cfe95291a480f35b60169085606494519362461bcd60e51b855284015282015275496e76616c6964207472616e7366657220726f75746560501b6044820152fd5b60159085606494519362461bcd60e51b855284015282015274526563697069656e7420686173206e6f20726f6c6560581b6044820152fd5b50634e487b7160e01b87526021825286fd5b60179085606494519362461bcd60e51b85528401528201527f43616e6e6f74207472616e7366657220746f2073656c660000000000000000006044820152fd5b60119085606494519362461bcd60e51b855284015282015270125b9d985b1a59081c9958da5c1a595b9d607a1b6044820152fd5b601b9085606494519362461bcd60e51b85528401528201527f53656e64657220726f6c652063616e6e6f74207472616e7366657200000000006044820152fd5b503387526002855260ff83882054166006811015610fac5760051415610ea2565b503461014557602091826003193601126101415735835260068252808320815190819485928583549182815201928252858220915b868282106110e257859061012688610117848903856111fb565b8354855288955090930192600192830192016110c8565b84903461070c578160031936011261070c576020906001548152f35b90815180825260208080930193019160005b828110611135575050505090565b835185529381019392810192600101611127565b600435906001600160a01b038216820361115f57565b600080fd5b9181601f8401121561115f578235916001600160401b03831161115f576020808501948460051b01011161115f57565b9181601f8401121561115f578235916001600160401b03831161115f576020838186019501011161115f57565b90600182811c921680156111f1575b60208310146111db57565b634e487b7160e01b600052602260045260246000fd5b91607f16916111d0565b90601f801991011681019081106001600160401b0382111761121c57604052565b634e487b7160e01b600052604160045260246000fd5b90604051918260008254611245816111c1565b908184526020946001916001811690816000146112b55750600114611276575b505050611274925003836111fb565b565b600090815285812095935091905b81831061129d5750506112749350820101388080611265565b85548884018501529485019487945091830191611284565b9250505061127494925060ff191682840152151560051b820101388080611265565b919082519283825260005b848110611303575050826000602080949584010152601f8019910116010190565b6020818301810151848301820152016112e2565b1561131e57565b60405162461bcd60e51b815260206004820152601460248201527310985d18da08191bd95cc81b9bdd08195e1a5cdd60621b6044820152606490fd5b1561136157565b60405162461bcd60e51b815260206004820152602c60248201527f4f6e6c792063757272656e742068616e646c65722063616e20706572666f726d60448201526b103a3434b99030b1ba34b7b760a11b6064820152608490fd5b156113c257565b60405162461bcd60e51b815260206004820152601060248201526f149bdb19481b9bdd08185b1b1bddd95960821b6044820152606490fd5b81835290916001600160fb1b03831161115f5760209260051b809284830137010190565b908060209392818452848401376000828201840152601f01601f1916010190565b9291926001600160401b03821161121c5760405191611468601f8201601f1916602001846111fb565b82948184528183011161115f578281602093846000960137010152565b91908110156114955760051b0190565b634e487b7160e01b600052603260045260246000fd5b919082018092116114b857565b634e487b7160e01b600052601160045260246000fd5b60001981146114b85760010190565b6001600160401b03811161121c5760051b60200190565b91908110156114955760051b81013590601e198136030182121561115f5701908135916001600160401b03831161115f57602001823603811361115f579190565b8054906801000000000000000082101561121c57600182018082558210156114955760005260206000200155565b60068110156115c7576001811461163e576002811461161d57600381146115fc576004146115915750600090565b600681101590816115c757600281149182156115ee575b82156115dd575b82156115ba57505090565b9091506115c75760051490565b634e487b7160e01b600052602160045260246000fd5b8092506115c75760048114916115af565b5060038114915060006115a8565b5060068110156115c75760048114908115611615575090565b600291501490565b5060068110156115c75760048114908115611636575090565b600391501490565b50600681101590816115c7576004811491821561166e575b821561166157505090565b9091506115c75760021490565b506003811491506000611656565b96909897929195939589156119395784156118e257846000805b8c8110611775575003611718576116b9966104c16104c9926104d195369161143f565b9260005b8181106116c957505050565b8061170e6116db611713938587611485565b35876000526117098860206006815260076040916116fc8684600020611535565b8560005252600020611535565b611e1c565b6114ce565b6116bd565b60405162461bcd60e51b815260206004820152602f60248201527f4f7574707574207175616e74697479206d757374206d6174636820746f74616c60448201526e20696e707574207175616e7469747960881b6064820152608490fd5b9150611782828d8c611485565b35806000526003602081815260409283600020541561189e578060005282825260ff60068560002001541660028110156115c75761185a57806000528282523360018060a01b036009866000200154160361180157926117f994926004926117f395600052526000200154906114ab565b916114ce565b908691611696565b835162461bcd60e51b815260048101839052602c60248201527f4f6e6c792063757272656e742068616e646c65722063616e2070726f6365737360448201526b040d2dce0eae840c4c2e8c6d60a31b6064820152608490fd5b835162461bcd60e51b815260048101839052601c60248201527f496e70757420626174636820616c726561647920636f6e73756d6564000000006044820152606490fd5b835162461bcd60e51b815260048101839052601a60248201527f496e70757420626174636820646f6573206e6f742065786973740000000000006044820152606490fd5b60405162461bcd60e51b815260206004820152602960248201527f4f7574707574207175616e74697479206d7573742062652067726561746572206044820152687468616e207a65726f60b81b6064820152608490fd5b60405162461bcd60e51b8152602060048201526024808201527f4174206c65617374206f6e6520696e70757420626174636820697320726571756044820152631a5c995960e21b6064820152608490fd5b92909493919461199b6001546114ce565b918260015582966040519561014087018781106001600160401b0382111761121c5760405284875260018060a01b0316928360208801526040870152606086015260808501528260a0850152600060c08501524260e0850152426101008501526101208401528060005260036020526040600020928051845560018060a01b036020820151166001600160601b0360a01b60018601541617600185015560408101518051906001600160401b03821161121c578190611a5d60028801546111c1565b601f8111611dc9575b50602090601f8311600114611d5757600092611d4c575b50508160011b916000199060031b1c19161760028501555b60608101518051906001600160401b03821161121c578190611aba60038801546111c1565b601f8111611cf9575b50602090601f8311600114611c8757600092611c7c575b50508160011b916000199060031b1c19161760038501555b608081015160048501556005840160a08201518051906001600160401b03821161121c578190611b2284546111c1565b601f8111611c29575b50602090601f8311600114611bc357600092611bb8575b50508160011b916000199060031b1c19161790555b60c0810151600685019460028210156115c7576112749560099260ff8019835416911617905560e083015160078201556101008301516008820155019061012060018060a01b03910151166001600160601b0360a01b825416179055611e6e565b015190503880611b42565b6000858152602081209350601f198516905b818110611c115750908460019594939210611bf8575b505050811b019055611b57565b015160001960f88460031b161c19169055388080611beb565b92936020600181928786015181550195019301611bd5565b909150836000526020600020601f840160051c81019160208510611c72575b90601f859493920160051c01905b818110611c635750611b2b565b60008155849350600101611c56565b9091508190611c48565b015190503880611ada565b9250600387016000526020600020906000935b601f1984168510611cde576001945083601f19811610611cc5575b505050811b016003850155611af2565b015160001960f88460031b161c19169055388080611cb5565b81810151835560209485019460019093019290910190611c9a565b909150600387016000526020600020601f840160051c810160208510611d45575b90849392915b601f830160051c82018110611d36575050611ac3565b60008155859450600101611d20565b5080611d1a565b015190503880611a7d565b9250600287016000526020600020906000935b601f1984168510611dae576001945083601f19811610611d95575b505050811b016002850155611a95565b015160001960f88460031b161c19169055388080611d85565b81810151835560209485019460019093019290910190611d6a565b909150600287016000526020600020601f840160051c810160208510611e15575b90849392915b601f830160051c82018110611e06575050611a66565b60008155859450600101611df0565b5080611dea565b806000526003602052604060002060068101600160ff19825416179055600842910155604051904282527ffbe2de9ca1387d2e2a58893d448d8301f9725586e8cb6915a4199316f59cec1e60203393a3565b908051908115611ee45760200120806000526005602052604060002054611e9f576000526005602052604060002055565b60405162461bcd60e51b815260206004820152601a60248201527f547261636b696e6720636f646520616c726561647920757365640000000000006044820152606490fd5b50505056fea264697066735822122061103eabc8e161fd6abd1c475eb4e12c5d6cf346acdf1ce9aa876afa63661c6464736f6c63430008180033",
  "linkReferences": {},
  "deployedLinkReferences": {}
}