{
  "_format": "hh-sol-artifact-1",
  "contractName": "ChainProof",
  "sourceName": "contracts/ChainProof.sol",
  "abi": [
    {
      "anonymous": false,
      "inputs": [
        {
          "indexed": true,
          "internalType": "uint256",
          "name": "id",
          "type": "uint256"
        },
        {
          "indexed": true,
          "internalType": "address",
          "name": "creator",
          "type": "address"
        },
        {
          "indexed": false,
          "internalType": "uint256",
          "name": "timestamp",
          "type": "uint256"
        }
      ],
      "name": "BatchCreated",
      "type": "event"
    },
    {
      "anonymous": false,
      "inputs": [
        {
          "indexed": true,
          "internalType": "uint256",
          "name": "id",
          "type": "uint256"
        },
        {
          "indexed": true,
          "internalType": "address",
          "name": "from",
          "type": "address"
        },
        {
          "indexed": true,
          "internalType": "address",
          "name": "to",
          "type": "address"
        },
        {
          "indexed": false,
          "internalType": "uint256",
          "name": "timestamp",
          "type": "uint256"
        }
      ],
      "name": "BatchTransferred",
      "type": "event"
    },
    {
      "anonymous": false,
      "inputs": [
        {
          "indexed": true,
          "internalType": "uint256",
          "name": "id",
          "type": "uint256"
        },
        {
          "indexed": false,
          "internalType": "enum ChainProof.State",
          "name": "newState",
          "type": "uint8"
        },
        {
          "indexed": true,
          "internalType": "address",
          "name": "handler",
          "type": "address"
        },
        {
          "indexed": false,
          "internalType": "uint256",
          "name": "timestamp",
          "type": "uint256"
        }
      ],
      "name": "StateUpdated",
      "type": "event"
    },
    {
      "inputs": [],
      "name": "batchCount",
      "outputs": [
        {
          "internalType": "uint256",
          "name": "",
          "type": "uint256"
        }
      ],
      "stateMutability": "view",
      "type": "function"
    },
    {
      "inputs": [
        {
          "internalType": "uint256",
          "name": "",
          "type": "uint256"
        }
      ],
      "name": "batches",
      "outputs": [
        {
          "internalType": "uint256",
          "name": "id",
          "type": "uint256"
        },
        {
          "internalType": "address",
          "name": "creator",
          "type": "address"
        },
        {
          "internalType": "string",
          "name": "origin",
          "type": "string"
        },
        {
          "internalType": "string",
          "name": "ipfsHash",
          "type": "string"
        },
        {
          "internalType": "enum ChainProof.State",
          "name": "state",
          "type": "uint8"
        },
        {
          "internalType": "uint256",
          "name": "timestamp",
          "type": "uint256"
        },
        {
          "internalType": "address",
          "name": "currentHandler",
          "type": "address"
        }
      ],
      "stateMutability": "view",
      "type": "function"
    },
    {
      "inputs": [
        {
          "internalType": "string",
          "name": "_origin",
          "type": "string"
        },
        {
          "internalType": "string",
          "name": "_ipfsHash",
          "type": "string"
        }
      ],
      "name": "harvestBatch",
      "outputs": [],
      "stateMutability": "nonpayable",
      "type": "function"
    },
    {
      "inputs": [
        {
          "internalType": "uint256",
          "name": "_id",
          "type": "uint256"
        },
        {
          "internalType": "address",
          "name": "_to",
          "type": "address"
        }
      ],
      "name": "transferBatch",
      "outputs": [],
      "stateMutability": "nonpayable",
      "type": "function"
    },
    {
      "inputs": [
        {
          "internalType": "uint256",
          "name": "_id",
          "type": "uint256"
        },
        {
          "internalType": "enum ChainProof.State",
          "name": "_newState",
          "type": "uint8"
        }
      ],
      "name": "updateBatchState",
      "outputs": [],
      "stateMutability": "nonpayable",
      "type": "function"
    }
  ],
  "bytecode": "0x608060405234801561001057600080fd5b506113ec806100206000396000f3fe608060405234801561001057600080fd5b50600436106100575760003560e01c806306f130561461005c5780633143bcab1461007a5780634e4a9cd014610096578063621f2b0e146100b2578063b32c4d8d146100ce575b600080fd5b610064610104565b604051610071919061092b565b60405180910390f35b610094600480360381019061008f9190610aa0565b61010a565b005b6100b060048036038101906100ab9190610b69565b610300565b005b6100cc60048036038101906100c79190610c07565b6104a2565b005b6100e860048036038101906100e39190610c47565b610773565b6040516100fb9796959493929190610d79565b60405180910390f35b60015481565b6001600081548092919061011d90610e25565b91905055506040518060e0016040528060015481526020013373ffffffffffffffffffffffffffffffffffffffff1681526020018381526020018281526020016000600581111561017157610170610d02565b5b81526020014281526020013373ffffffffffffffffffffffffffffffffffffffff1681525060008060015481526020019081526020016000206000820151816000015560208201518160010160006101000a81548173ffffffffffffffffffffffffffffffffffffffff021916908373ffffffffffffffffffffffffffffffffffffffff16021790555060408201518160020190816102109190611079565b5060608201518160030190816102269190611079565b5060808201518160040160006101000a81548160ff0219169083600581111561025257610251610d02565b5b021790555060a0820151816005015560c08201518160060160006101000a81548173ffffffffffffffffffffffffffffffffffffffff021916908373ffffffffffffffffffffffffffffffffffffffff1602179055509050503373ffffffffffffffffffffffffffffffffffffffff166001547f271a5ac6a1edc479b01276b5d7778e201d4af7d76c64756a820efce2319e6635426040516102f4919061092b565b60405180910390a35050565b60008060008481526020019081526020016000209050600081600001540361035d576040517f08c379a000000000000000000000000000000000000000000000000000000000815260040161035490611197565b60405180910390fd5b8060040160009054906101000a900460ff16600581111561038157610380610d02565b5b82600581111561039457610393610d02565b5b116103d4576040517f08c379a00000000000000000000000000000000000000000000000000000000081526004016103cb90611203565b60405180910390fd5b818160040160006101000a81548160ff021916908360058111156103fb576103fa610d02565b5b0217905550338160060160006101000a81548173ffffffffffffffffffffffffffffffffffffffff021916908373ffffffffffffffffffffffffffffffffffffffff1602179055504281600501819055503373ffffffffffffffffffffffffffffffffffffffff16837fb365a335a229d85a20176fd53ed66f56c8a92d638ac56155efc4f96e1c66fe9c8442604051610495929190611223565b60405180910390a3505050565b6000806000848152602001908152602001600020905060008160000154036104ff576040517f08c379a00000000000000000000000000000000000000000000000000000000081526004016104f690611197565b60405180910390fd5b8060060160009054906101000a900473ffffffffffffffffffffffffffffffffffffffff1673ffffffffffffffffffffffffffffffffffffffff163373ffffffffffffffffffffffffffffffffffffffff1614610591576040517f08c379a0000000000000000000000000000000000000000000000000000000008152600401610588906112be565b60405180910390fd5b600073ffffffffffffffffffffffffffffffffffffffff168273ffffffffffffffffffffffffffffffffffffffff1603610600576040517f08c379a00000000000000000000000000000000000000000000000000000000081526004016105f79061132a565b60405180910390fd5b8060060160009054906101000a900473ffffffffffffffffffffffffffffffffffffffff1673ffffffffffffffffffffffffffffffffffffffff168273ffffffffffffffffffffffffffffffffffffffff1603610692576040517f08c379a000000000000000000000000000000000000000000000000000000000815260040161068990611396565b60405180910390fd5b60008160060160009054906101000a900473ffffffffffffffffffffffffffffffffffffffff169050828260060160006101000a81548173ffffffffffffffffffffffffffffffffffffffff021916908373ffffffffffffffffffffffffffffffffffffffff1602179055504282600501819055508273ffffffffffffffffffffffffffffffffffffffff168173ffffffffffffffffffffffffffffffffffffffff16857fb4a1185473b458886a3d3056f172372438629a6f4fbfc04ad2dad0956b7b692642604051610765919061092b565b60405180910390a450505050565b60006020528060005260406000206000915090508060000154908060010160009054906101000a900473ffffffffffffffffffffffffffffffffffffffff16908060020180546107c290610e9c565b80601f01602080910402602001604051908101604052809291908181526020018280546107ee90610e9c565b801561083b5780601f106108105761010080835404028352916020019161083b565b820191906000526020600020905b81548152906001019060200180831161081e57829003601f168201915b50505050509080600301805461085090610e9c565b80601f016020809104026020016040519081016040528092919081815260200182805461087c90610e9c565b80156108c95780601f1061089e576101008083540402835291602001916108c9565b820191906000526020600020905b8154815290600101906020018083116108ac57829003601f168201915b5050505050908060040160009054906101000a900460ff16908060050154908060060160009054906101000a900473ffffffffffffffffffffffffffffffffffffffff16905087565b6000819050919050565b61092581610912565b82525050565b6000602082019050610940600083018461091c565b92915050565b6000604051905090565b600080fd5b600080fd5b600080fd5b600080fd5b6000601f19601f8301169050919050565b7f4e487b7100000000000000000000000000000000000000000000000000000000600052604160045260246000fd5b6109ad82610964565b810181811067ffffffffffffffff821117156109cc576109cb610975565b5b80604052505050565b60006109df610946565b90506109eb82826109a4565b919050565b600067ffffffffffffffff821115610a0b57610a0a610975565b5b610a1482610964565b9050602081019050919050565b82818337600083830152505050565b6000610a43610a3e846109f0565b6109d5565b905082815260208101848484011115610a5f57610a5e61095f565b5b610a6a848285610a21565b509392505050565b600082601f830112610a8757610a8661095a565b5b8135610a97848260208601610a30565b91505092915050565b60008060408385031215610ab757610ab6610950565b5b600083013567ffffffffffffffff811115610ad557610ad4610955565b5b610ae185828601610a72565b925050602083013567ffffffffffffffff811115610b0257610b01610955565b5b610b0e85828601610a72565b9150509250929050565b610b2181610912565b8114610b2c57600080fd5b50565b600081359050610b3e81610b18565b92915050565b60068110610b5157600080fd5b50565b600081359050610b6381610b44565b92915050565b60008060408385031215610b8057610b7f610950565b5b6000610b8e85828601610b2f565b9250506020610b9f85828601610b54565b9150509250929050565b600073ffffffffffffffffffffffffffffffffffffffff82169050919050565b6000610bd482610ba9565b9050919050565b610be481610bc9565b8114610bef57600080fd5b50565b600081359050610c0181610bdb565b92915050565b60008060408385031215610c1e57610c1d610950565b5b6000610c2c85828601610b2f565b9250506020610c3d85828601610bf2565b9150509250929050565b600060208284031215610c5d57610c5c610950565b5b6000610c6b84828501610b2f565b91505092915050565b610c7d81610bc9565b82525050565b600081519050919050565b600082825260208201905092915050565b60005b83811015610cbd578082015181840152602081019050610ca2565b60008484015250505050565b6000610cd482610c83565b610cde8185610c8e565b9350610cee818560208601610c9f565b610cf781610964565b840191505092915050565b7f4e487b7100000000000000000000000000000000000000000000000000000000600052602160045260246000fd5b60068110610d4257610d41610d02565b5b50565b6000819050610d5382610d31565b919050565b6000610d6382610d45565b9050919050565b610d7381610d58565b82525050565b600060e082019050610d8e600083018a61091c565b610d9b6020830189610c74565b8181036040830152610dad8188610cc9565b90508181036060830152610dc18187610cc9565b9050610dd06080830186610d6a565b610ddd60a083018561091c565b610dea60c0830184610c74565b98975050505050505050565b7f4e487b7100000000000000000000000000000000000000000000000000000000600052601160045260246000fd5b6000610e3082610912565b91507fffffffffffffffffffffffffffffffffffffffffffffffffffffffffffffffff8203610e6257610e61610df6565b5b600182019050919050565b7f4e487b7100000000000000000000000000000000000000000000000000000000600052602260045260246000fd5b60006002820490506001821680610eb457607f821691505b602082108103610ec757610ec6610e6d565b5b50919050565b60008190508160005260206000209050919050565b60006020601f8301049050919050565b600082821b905092915050565b600060088302610f2f7fffffffffffffffffffffffffffffffffffffffffffffffffffffffffffffffff82610ef2565b610f398683610ef2565b95508019841693508086168417925050509392505050565b6000819050919050565b6000610f76610f71610f6c84610912565b610f51565b610912565b9050919050565b6000819050919050565b610f9083610f5b565b610fa4610f9c82610f7d565b848454610eff565b825550505050565b600090565b610fb9610fac565b610fc4818484610f87565b505050565b5b81811015610fe857610fdd600082610fb1565b600181019050610fca565b5050565b601f82111561102d57610ffe81610ecd565b61100784610ee2565b81016020851015611016578190505b61102a61102285610ee2565b830182610fc9565b50505b505050565b600082821c905092915050565b600061105060001984600802611032565b1980831691505092915050565b6000611069838361103f565b9150826002028217905092915050565b61108282610c83565b67ffffffffffffffff81111561109b5761109a610975565b5b6110a58254610e9c565b6110b0828285610fec565b600060209050601f8311600181146110e357600084156110d1578287015190505b6110db858261105d565b865550611143565b601f1984166110f186610ecd565b60005b82811015611119578489015182556001820191506020850194506020810190506110f4565b868310156111365784890151611132601f89168261103f565b8355505b6001600288020188555050505b505050505050565b7f426174636820646f6573206e6f74206578697374000000000000000000000000600082015250565b6000611181601483610c8e565b915061118c8261114b565b602082019050919050565b600060208201905081810360008301526111b081611174565b9050919050565b7f496e76616c6964207374617465207472616e736974696f6e0000000000000000600082015250565b60006111ed601883610c8e565b91506111f8826111b7565b602082019050919050565b6000602082019050818103600083015261121c816111e0565b9050919050565b60006040820190506112386000830185610d6a565b611245602083018461091c565b9392505050565b7f4f6e6c792063757272656e742068616e646c65722063616e207472616e73666560008201527f7200000000000000000000000000000000000000000000000000000000000000602082015250565b60006112a8602183610c8e565b91506112b38261124c565b604082019050919050565b600060208201905081810360008301526112d78161129b565b9050919050565b7f496e76616c696420726563697069656e74000000000000000000000000000000600082015250565b6000611314601183610c8e565b915061131f826112de565b602082019050919050565b6000602082019050818103600083015261134381611307565b9050919050565b7f416c72656164792063757272656e742068616e646c6572000000000000000000600082015250565b6000611380601783610c8e565b915061138b8261134a565b602082019050919050565b600060208201905081810360008301526113af81611373565b905091905056fea2646970667358221220c3b49ddbb7a346632a57b940759107e2d15c79876a4f58352b427bd292de7ddc64736f6c63430008180033",
  "linkReferences": {},
  "deployedLinkReferences": {}
}