{
  "_format": "hh-sol-artifact-1",
  "contractName": "ChainProof",
  "sourceName": "contracts/ChainProof.sol",
  "abi": [
    {
      "anonymous": false,
      "inputs": [
        {
          "indexed": true,
          "internalType": "uint256",
          "name": "id",
          "type": "uint256"
        },
        {
          "indexed": true,
          "internalType": "address",
          "name": "creator",
          "type": "address"
        },
        {
          "indexed": false,
          "internalType": "uint256",
          "name": "timestamp",
          "type": "uint256"
        }
      ],
      "name": "BatchCreated",
      "type": "event"
    },
    {
      "inputs": [],
      "name": "batchCount",
      "outputs": [
        {
          "internalType": "uint256",
          "name": "",
          "type": "uint256"
        }
      ],
      "stateMutability": "view",
      "type": "function"
    },
    {
      "inputs": [
        {
          "internalType": "uint256",
          "name": "",
          "type": "uint256"
        }
      ],
      "name": "batches",
      "outputs": [
        {
          "internalType": "uint256",
          "name": "id",
          "type": "uint256"
        },
        {
          "internalType": "address",
          "name": "creator",
          "type": "address"
        },
        {
          "internalType": "string",
          "name": "origin",
          "type": "string"
        },
        {
          "internalType": "string",
          "name": "ipfsHash",
          "type": "string"
        },
        {
          "internalType": "enum ChainProof.State",
          "name": "state",
          "type": "uint8"
        },
        {
          "internalType": "uint256",
          "name": "timestamp",
          "type": "uint256"
        },
        {
          "internalType": "address",
          "name": "currentHandler",
          "type": "address"
        }
      ],
      "stateMutability": "view",
      "type": "function"
    },
    {
      "inputs": [
        {
          "internalType": "string",
          "name": "_origin",
          "type": "string"
        },
        {
          "internalType": "string",
          "name": "_ipfsHash",
          "type": "string"
        }
      ],
      "name": "harvestBatch",
      "outputs": [],
      "stateMutability": "nonpayable",
      "type": "function"
    }
  ],
  "bytecode": "0x608060405234801561001057600080fd5b50610bef806100206000396000f3fe608060405234801561001057600080fd5b50600436106100415760003560e01c806306f13056146100465780633143bcab14610064578063b32c4d8d14610080575b600080fd5b61004e6100b6565b60405161005b919061046a565b60405180910390f35b61007e600480360381019061007991906105df565b6100bc565b005b61009a60048036038101906100959190610683565b6102b2565b6040516100ad97969594939291906107e7565b60405180910390f35b60015481565b600160008154809291906100cf90610893565b91905055506040518060e0016040528060015481526020013373ffffffffffffffffffffffffffffffffffffffff1681526020018381526020018281526020016000600581111561012357610122610770565b5b81526020014281526020013373ffffffffffffffffffffffffffffffffffffffff1681525060008060015481526020019081526020016000206000820151816000015560208201518160010160006101000a81548173ffffffffffffffffffffffffffffffffffffffff021916908373ffffffffffffffffffffffffffffffffffffffff16021790555060408201518160020190816101c29190610ae7565b5060608201518160030190816101d89190610ae7565b5060808201518160040160006101000a81548160ff0219169083600581111561020457610203610770565b5b021790555060a0820151816005015560c08201518160060160006101000a81548173ffffffffffffffffffffffffffffffffffffffff021916908373ffffffffffffffffffffffffffffffffffffffff1602179055509050503373ffffffffffffffffffffffffffffffffffffffff166001547f271a5ac6a1edc479b01276b5d7778e201d4af7d76c64756a820efce2319e6635426040516102a6919061046a565b60405180910390a35050565b60006020528060005260406000206000915090508060000154908060010160009054906101000a900473ffffffffffffffffffffffffffffffffffffffff16908060020180546103019061090a565b80601f016020809104026020016040519081016040528092919081815260200182805461032d9061090a565b801561037a5780601f1061034f5761010080835404028352916020019161037a565b820191906000526020600020905b81548152906001019060200180831161035d57829003601f168201915b50505050509080600301805461038f9061090a565b80601f01602080910402602001604051908101604052809291908181526020018280546103bb9061090a565b80156104085780601f106103dd57610100808354040283529160200191610408565b820191906000526020600020905b8154815290600101906020018083116103eb57829003601f168201915b5050505050908060040160009054906101000a900460ff16908060050154908060060160009054906101000a900473ffffffffffffffffffffffffffffffffffffffff16905087565b6000819050919050565b61046481610451565b82525050565b600060208201905061047f600083018461045b565b92915050565b6000604051905090565b600080fd5b600080fd5b600080fd5b600080fd5b6000601f19601f8301169050919050565b7f4e487b7100000000000000000000000000000000000000000000000000000000600052604160045260246000fd5b6104ec826104a3565b810181811067ffffffffffffffff8211171561050b5761050a6104b4565b5b80604052505050565b600061051e610485565b905061052a82826104e3565b919050565b600067ffffffffffffffff82111561054a576105496104b4565b5b610553826104a3565b9050602081019050919050565b82818337600083830152505050565b600061058261057d8461052f565b610514565b90508281526020810184848401111561059e5761059d61049e565b5b6105a9848285610560565b509392505050565b600082601f8301126105c6576105c5610499565b5b81356105d684826020860161056f565b91505092915050565b600080604083850312156105f6576105f561048f565b5b600083013567ffffffffffffffff81111561061457610613610494565b5b610620858286016105b1565b925050602083013567ffffffffffffffff81111561064157610640610494565b5b61064d858286016105b1565b9150509250929050565b61066081610451565b811461066b57600080fd5b50565b60008135905061067d81610657565b92915050565b6000602082840312156106995761069861048f565b5b60006106a78482850161066e565b91505092915050565b600073ffffffffffffffffffffffffffffffffffffffff82169050919050565b60006106db826106b0565b9050919050565b6106eb816106d0565b82525050565b600081519050919050565b600082825260208201905092915050565b60005b8381101561072b578082015181840152602081019050610710565b60008484015250505050565b6000610742826106f1565b61074c81856106fc565b935061075c81856020860161070d565b610765816104a3565b840191505092915050565b7f4e487b7100000000000000000000000000000000000000000000000000000000600052602160045260246000fd5b600681106107b0576107af610770565b5b50565b60008190506107c18261079f565b919050565b60006107d1826107b3565b9050919050565b6107e1816107c6565b82525050565b600060e0820190506107fc600083018a61045b565b61080960208301896106e2565b818103604083015261081b8188610737565b9050818103606083015261082f8187610737565b905061083e60808301866107d8565b61084b60a083018561045b565b61085860c08301846106e2565b98975050505050505050565b7f4e487b7100000000000000000000000000000000000000000000000000000000600052601160045260246000fd5b600061089e82610451565b91507fffffffffffffffffffffffffffffffffffffffffffffffffffffffffffffffff82036108d0576108cf610864565b5b600182019050919050565b7f4e487b7100000000000000000000000000000000000000000000000000000000600052602260045260246000fd5b6000600282049050600182168061092257607f821691505b602082108103610935576109346108db565b5b50919050565b60008190508160005260206000209050919050565b60006020601f8301049050919050565b600082821b905092915050565b60006008830261099d7fffffffffffffffffffffffffffffffffffffffffffffffffffffffffffffffff82610960565b6109a78683610960565b95508019841693508086168417925050509392505050565b6000819050919050565b60006109e46109df6109da84610451565b6109bf565b610451565b9050919050565b6000819050919050565b6109fe836109c9565b610a12610a0a826109eb565b84845461096d565b825550505050565b600090565b610a27610a1a565b610a328184846109f5565b505050565b5b81811015610a5657610a4b600082610a1f565b600181019050610a38565b5050565b601f821115610a9b57610a6c8161093b565b610a7584610950565b81016020851015610a84578190505b610a98610a9085610950565b830182610a37565b50505b505050565b600082821c905092915050565b6000610abe60001984600802610aa0565b1980831691505092915050565b6000610ad78383610aad565b9150826002028217905092915050565b610af0826106f1565b67ffffffffffffffff811115610b0957610b086104b4565b5b610b13825461090a565b610b1e828285610a5a565b600060209050601f831160018114610b515760008415610b3f578287015190505b610b498582610acb565b865550610bb1565b601f198416610b5f8661093b565b60005b82811015610b8757848901518255600182019150602085019450602081019050610b62565b86831015610ba45784890151610ba0601f891682610aad565b8355505b6001600288020188555050505b50505050505056fea26469706673582212202f3795d80c2cf7bae6ac94091e19a2346a3eacfea428e6d5182357bf0636d1cf64736f6c63430008180033",
  "linkReferences": {},
  "deployedLinkReferences": {}
}