{
  "_format": "hh-sol-artifact-1",
  "contractName": "ChainProof",
  "sourceName": "contracts/ChainProof.sol",
  "abi": [
    {
      "anonymous": false,
      "inputs": [
        {
          "indexed": true,
          "internalType": "uint256",
          "name": "id",
          "type": "uint256"
        },
        {
          "indexed": true,
          "internalType": "address",
          "name": "creator",
          "type": "address"
        },
        {
          "indexed": false,
          "internalType": "uint256",
          "name": "timestamp",
          "type": "uint256"
        }
      ],
      "name": "BatchCreated",
      "type": "event"
    },
    {
      "anonymous": false,
      "inputs": [
        {
          "indexed": true,
          "internalType": "uint256",
          "name": "id",
          "type": "uint256"
        },
        {
          "indexed": false,
          "internalType": "enum ChainProof.State",
          "name": "newState",
          "type": "uint8"
        },
        {
          "indexed": true,
          "internalType": "address",
          "name": "handler",
          "type": "address"
        },
        {
          "indexed": false,
          "internalType": "uint256",
          "name": "timestamp",
          "type": "uint256"
        }
      ],
      "name": "StateUpdated",
      "type": "event"
    },
    {
      "inputs": [],
      "name": "batchCount",
      "outputs": [
        {
          "internalType": "uint256",
          "name": "",
          "type": "uint256"
        }
      ],
      "stateMutability": "view",
      "type": "function"
    },
    {
      "inputs": [
        {
          "internalType": "uint256",
          "name": "",
          "type": "uint256"
        }
      ],
      "name": "batches",
      "outputs": [
        {
          "internalType": "uint256",
          "name": "id",
          "type": "uint256"
        },
        {
          "internalType": "address",
          "name": "creator",
          "type": "address"
        },
        {
          "internalType": "string",
          "name": "origin",
          "type": "string"
        },
        {
          "internalType": "string",
          "name": "ipfsHash",
          "type": "string"
        },
        {
          "internalType": "enum ChainProof.State",
          "name": "state",
          "type": "uint8"
        },
        {
          "internalType": "uint256",
          "name": "timestamp",
          "type": "uint256"
        },
        {
          "internalType": "address",
          "name": "currentHandler",
          "type": "address"
        }
      ],
      "stateMutability": "view",
      "type": "function"
    },
    {
      "inputs": [
        {
          "internalType": "string",
          "name": "_origin",
          "type": "string"
        },
        {
          "internalType": "string",
          "name": "_ipfsHash",
          "type": "string"
        }
      ],
      "name": "harvestBatch",
      "outputs": [],
      "stateMutability": "nonpayable",
      "type": "function"
    },
    {
      "inputs": [
        {
          "internalType": "uint256",
          "name": "_id",
          "type": "uint256"
        },
        {
          "internalType": "enum ChainProof.State",
          "name": "_newState",
          "type": "uint8"
        }
      ],
      "name": "updateBatchState",
      "outputs": [],
      "stateMutability": "nonpayable",
      "type": "function"
    }
  ],
  "bytecode": "0x608060405234801561001057600080fd5b50610f1e806100206000396000f3fe608060405234801561001057600080fd5b506004361061004c5760003560e01c806306f13056146100515780633143bcab1461006f5780634e4a9cd01461008b578063b32c4d8d146100a7575b600080fd5b6100596100dd565b6040516100669190610633565b60405180910390f35b610089600480360381019061008491906107a8565b6100e3565b005b6100a560048036038101906100a09190610871565b6102d9565b005b6100c160048036038101906100bc91906108b1565b61047b565b6040516100d49796959493929190610a15565b60405180910390f35b60015481565b600160008154809291906100f690610ac1565b91905055506040518060e0016040528060015481526020013373ffffffffffffffffffffffffffffffffffffffff1681526020018381526020018281526020016000600581111561014a5761014961099e565b5b81526020014281526020013373ffffffffffffffffffffffffffffffffffffffff1681525060008060015481526020019081526020016000206000820151816000015560208201518160010160006101000a81548173ffffffffffffffffffffffffffffffffffffffff021916908373ffffffffffffffffffffffffffffffffffffffff16021790555060408201518160020190816101e99190610d15565b5060608201518160030190816101ff9190610d15565b5060808201518160040160006101000a81548160ff0219169083600581111561022b5761022a61099e565b5b021790555060a0820151816005015560c08201518160060160006101000a81548173ffffffffffffffffffffffffffffffffffffffff021916908373ffffffffffffffffffffffffffffffffffffffff1602179055509050503373ffffffffffffffffffffffffffffffffffffffff166001547f271a5ac6a1edc479b01276b5d7778e201d4af7d76c64756a820efce2319e6635426040516102cd9190610633565b60405180910390a35050565b600080600084815260200190815260200160002090506000816000015403610336576040517f08c379a000000000000000000000000000000000000000000000000000000000815260040161032d90610e33565b60405180910390fd5b8060040160009054906101000a900460ff16600581111561035a5761035961099e565b5b82600581111561036d5761036c61099e565b5b116103ad576040517f08c379a00000000000000000000000000000000000000000000000000000000081526004016103a490610e9f565b60405180910390fd5b818160040160006101000a81548160ff021916908360058111156103d4576103d361099e565b5b0217905550338160060160006101000a81548173ffffffffffffffffffffffffffffffffffffffff021916908373ffffffffffffffffffffffffffffffffffffffff1602179055504281600501819055503373ffffffffffffffffffffffffffffffffffffffff16837fb365a335a229d85a20176fd53ed66f56c8a92d638ac56155efc4f96e1c66fe9c844260405161046e929190610ebf565b60405180910390a3505050565b60006020528060005260406000206000915090508060000154908060010160009054906101000a900473ffffffffffffffffffffffffffffffffffffffff16908060020180546104ca90610b38565b80601f01602080910402602001604051908101604052809291908181526020018280546104f690610b38565b80156105435780601f1061051857610100808354040283529160200191610543565b820191906000526020600020905b81548152906001019060200180831161052657829003601f168201915b50505050509080600301805461055890610b38565b80601f016020809104026020016040519081016040528092919081815260200182805461058490610b38565b80156105d15780601f106105a6576101008083540402835291602001916105d1565b820191906000526020600020905b8154815290600101906020018083116105b457829003601f168201915b5050505050908060040160009054906101000a900460ff16908060050154908060060160009054906101000a900473ffffffffffffffffffffffffffffffffffffffff16905087565b6000819050919050565b61062d8161061a565b82525050565b60006020820190506106486000830184610624565b92915050565b6000604051905090565b600080fd5b600080fd5b600080fd5b600080fd5b6000601f19601f8301169050919050565b7f4e487b7100000000000000000000000000000000000000000000000000000000600052604160045260246000fd5b6106b58261066c565b810181811067ffffffffffffffff821117156106d4576106d361067d565b5b80604052505050565b60006106e761064e565b90506106f382826106ac565b919050565b600067ffffffffffffffff8211156107135761071261067d565b5b61071c8261066c565b9050602081019050919050565b82818337600083830152505050565b600061074b610746846106f8565b6106dd565b90508281526020810184848401111561076757610766610667565b5b610772848285610729565b509392505050565b600082601f83011261078f5761078e610662565b5b813561079f848260208601610738565b91505092915050565b600080604083850312156107bf576107be610658565b5b600083013567ffffffffffffffff8111156107dd576107dc61065d565b5b6107e98582860161077a565b925050602083013567ffffffffffffffff81111561080a5761080961065d565b5b6108168582860161077a565b9150509250929050565b6108298161061a565b811461083457600080fd5b50565b60008135905061084681610820565b92915050565b6006811061085957600080fd5b50565b60008135905061086b8161084c565b92915050565b6000806040838503121561088857610887610658565b5b600061089685828601610837565b92505060206108a78582860161085c565b9150509250929050565b6000602082840312156108c7576108c6610658565b5b60006108d584828501610837565b91505092915050565b600073ffffffffffffffffffffffffffffffffffffffff82169050919050565b6000610909826108de565b9050919050565b610919816108fe565b82525050565b600081519050919050565b600082825260208201905092915050565b60005b8381101561095957808201518184015260208101905061093e565b60008484015250505050565b60006109708261091f565b61097a818561092a565b935061098a81856020860161093b565b6109938161066c565b840191505092915050565b7f4e487b7100000000000000000000000000000000000000000000000000000000600052602160045260246000fd5b600681106109de576109dd61099e565b5b50565b60008190506109ef826109cd565b919050565b60006109ff826109e1565b9050919050565b610a0f816109f4565b82525050565b600060e082019050610a2a600083018a610624565b610a376020830189610910565b8181036040830152610a498188610965565b90508181036060830152610a5d8187610965565b9050610a6c6080830186610a06565b610a7960a0830185610624565b610a8660c0830184610910565b98975050505050505050565b7f4e487b7100000000000000000000000000000000000000000000000000000000600052601160045260246000fd5b6000610acc8261061a565b91507fffffffffffffffffffffffffffffffffffffffffffffffffffffffffffffffff8203610afe57610afd610a92565b5b600182019050919050565b7f4e487b7100000000000000000000000000000000000000000000000000000000600052602260045260246000fd5b60006002820490506001821680610b5057607f821691505b602082108103610b6357610b62610b09565b5b50919050565b60008190508160005260206000209050919050565b60006020601f8301049050919050565b600082821b905092915050565b600060088302610bcb7fffffffffffffffffffffffffffffffffffffffffffffffffffffffffffffffff82610b8e565b610bd58683610b8e565b95508019841693508086168417925050509392505050565b6000819050919050565b6000610c12610c0d610c088461061a565b610bed565b61061a565b9050919050565b6000819050919050565b610c2c83610bf7565b610c40610c3882610c19565b848454610b9b565b825550505050565b600090565b610c55610c48565b610c60818484610c23565b505050565b5b81811015610c8457610c79600082610c4d565b600181019050610c66565b5050565b601f821115610cc957610c9a81610b69565b610ca384610b7e565b81016020851015610cb2578190505b610cc6610cbe85610b7e565b830182610c65565b50505b505050565b600082821c905092915050565b6000610cec60001984600802610cce565b1980831691505092915050565b6000610d058383610cdb565b9150826002028217905092915050565b610d1e8261091f565b67ffffffffffffffff811115610d3757610d3661067d565b5b610d418254610b38565b610d4c828285610c88565b600060209050601f831160018114610d7f5760008415610d6d578287015190505b610d778582610cf9565b865550610ddf565b601f198416610d8d86610b69565b60005b82811015610db557848901518255600182019150602085019450602081019050610d90565b86831015610dd25784890151610dce601f891682610cdb565b8355505b6001600288020188555050505b505050505050565b7f426174636820646f6573206e6f74206578697374000000000000000000000000600082015250565b6000610e1d60148361092a565b9150610e2882610de7565b602082019050919050565b60006020820190508181036000830152610e4c81610e10565b9050919050565b7f496e76616c6964207374617465207472616e736974696f6e0000000000000000600082015250565b6000610e8960188361092a565b9150610e9482610e53565b602082019050919050565b60006020820190508181036000830152610eb881610e7c565b9050919050565b6000604082019050610ed46000830185610a06565b610ee16020830184610624565b939250505056fea26469706673582212201336d576de89c4c5a95e57d1ecbc5a526377a8bf24076f81f55354638c9db12064736f6c63430008180033",
  "linkReferences": {},
  "deployedLinkReferences": {}
}