{
  "_format": "hh-sol-artifact-1",
  "contractName": "ChainProof",
  "sourceName": "contracts/ChainProof.sol",
  "abi": [
    {
      "anonymous": false,
      "inputs": [
        {
          "indexed": true,
          "internalType": "uint256",
          "name": "id",
          "type": "uint256"
        },
        {
          "indexed": true,
          "internalType": "address",
          "name": "creator",
          "type": "address"
        },
        {
          "indexed": false,
          "internalType": "uint256",
          "name": "timestamp",
          "type": "uint256"
        }
      ],
      "name": "BatchCreated",
      "type": "event"
    },
    {
      "anonymous": false,
      "inputs": [
        {
          "indexed": true,
          "internalType": "uint256",
          "name": "id",
          "type": "uint256"
        },
        {
          "indexed": true,
          "internalType": "address",
          "name": "from",
          "type": "address"
        },
        {
          "indexed": true,
          "internalType": "address",
          "name": "to",
          "type": "address"
        },
        {
          "indexed": false,
          "internalType": "uint256",
          "name": "timestamp",
          "type": "uint256"
        }
      ],
      "name": "BatchTransferred",
      "type": "event"
    },
    {
      "anonymous": false,
      "inputs": [
        {
          "indexed": true,
          "internalType": "uint256",
          "name": "id",
          "type": "uint256"
        },
        {
          "indexed": false,
          "internalType": "enum ChainProof.State",
          "name": "newState",
          "type": "uint8"
        },
        {
          "indexed": true,
          "internalType": "address",
          "name": "handler",
          "type": "address"
        },
        {
          "indexed": false,
          "internalType": "uint256",
          "name": "timestamp",
          "type": "uint256"
        }
      ],
      "name": "StateUpdated",
      "type": "event"
    },
    {
      "inputs": [],
      "name": "batchCount",
      "outputs": [
        {
          "internalType": "uint256",
          "name": "",
          "type": "uint256"
        }
      ],
      "stateMutability": "view",
      "type": "function"
    },
    {
      "inputs": [
        {
          "internalType": "uint256",
          "name": "",
          "type": "uint256"
        }
      ],
      "name": "batches",
      "outputs": [
        {
          "internalType": "uint256",
          "name": "id",
          "type": "uint256"
        },
        {
          "internalType": "address",
          "name": "creator",
          "type": "address"
        },
        {
          "internalType": "string",
          "name": "origin",
          "type": "string"
        },
        {
          "internalType": "string",
          "name": "ipfsHash",
          "type": "string"
        },
        {
          "internalType": "enum ChainProof.State",
          "name": "state",
          "type": "uint8"
        },
        {
          "internalType": "uint256",
          "name": "timestamp",
          "type": "uint256"
        },
        {
          "internalType": "address",
          "name": "currentHandler",
          "type": "address"
        }
      ],
      "stateMutability": "view",
      "type": "function"
    },
    {
      "inputs": [
        {
          "internalType": "string",
          "name": "_origin",
          "type": "string"
        },
        {
          "internalType": "string",
          "name": "_ipfsHash",
          "type": "string"
        }
      ],
      "name": "harvestBatch",
      "outputs": [],
      "stateMutability": "nonpayable",
      "type": "function"
    },
    {
      "inputs": [
        {
          "internalType": "uint256",
          "name": "_id",
          "type": "uint256"
        },
        {
          "internalType": "address",
          "name": "_to",
          "type": "address"
        }
      ],
      "name": "transferBatch",
      "outputs": [],
      "stateMutability": "nonpayable",
      "type": "function"
    },
    {
      "inputs": [
        {
          "internalType": "uint256",
          "name": "_id",
          "type": "uint256"
        },
        {
          "internalType": "enum ChainProof.State",
          "name": "_newState",
          "type": "uint8"
        }
      ],
      "name": "updateBatchState",
      "outputs": [],
      "stateMutability": "nonpayable",
      "type": "function"
    }
  ],
  "bytecode": "0x608060405234801561001057600080fd5b50611510806100206000396000f3fe608060405234801561001057600080fd5b50600436106100575760003560e01c806306f130561461005c5780633143bcab1461007a5780634e4a9cd014610096578063621f2b0e146100b2578063b32c4d8d146100ce575b600080fd5b610064610104565b60405161007191906109bd565b60405180910390f35b610094600480360381019061008f9190610b32565b61010a565b005b6100b060048036038101906100ab9190610bfb565b610300565b005b6100cc60048036038101906100c79190610c99565b610534565b005b6100e860048036038101906100e39190610cd9565b610805565b6040516100fb9796959493929190610e0b565b60405180910390f35b60015481565b6001600081548092919061011d90610eb7565b91905055506040518060e0016040528060015481526020013373ffffffffffffffffffffffffffffffffffffffff1681526020018381526020018281526020016000600581111561017157610170610d94565b5b81526020014281526020013373ffffffffffffffffffffffffffffffffffffffff1681525060008060015481526020019081526020016000206000820151816000015560208201518160010160006101000a81548173ffffffffffffffffffffffffffffffffffffffff021916908373ffffffffffffffffffffffffffffffffffffffff1602179055506040820151816002019081610210919061110b565b506060820151816003019081610226919061110b565b5060808201518160040160006101000a81548160ff0219169083600581111561025257610251610d94565b5b021790555060a0820151816005015560c08201518160060160006101000a81548173ffffffffffffffffffffffffffffffffffffffff021916908373ffffffffffffffffffffffffffffffffffffffff1602179055509050503373ffffffffffffffffffffffffffffffffffffffff166001547f271a5ac6a1edc479b01276b5d7778e201d4af7d76c64756a820efce2319e6635426040516102f491906109bd565b60405180910390a35050565b600080600084815260200190815260200160002090508060060160009054906101000a900473ffffffffffffffffffffffffffffffffffffffff1673ffffffffffffffffffffffffffffffffffffffff163373ffffffffffffffffffffffffffffffffffffffff16146103a8576040517f08c379a000000000000000000000000000000000000000000000000000000000815260040161039f9061124f565b60405180910390fd5b60008160000154036103ef576040517f08c379a00000000000000000000000000000000000000000000000000000000081526004016103e6906112bb565b60405180910390fd5b8060040160009054906101000a900460ff16600581111561041357610412610d94565b5b82600581111561042657610425610d94565b5b11610466576040517f08c379a000000000000000000000000000000000000000000000000000000000815260040161045d90611327565b60405180910390fd5b818160040160006101000a81548160ff0219169083600581111561048d5761048c610d94565b5b0217905550338160060160006101000a81548173ffffffffffffffffffffffffffffffffffffffff021916908373ffffffffffffffffffffffffffffffffffffffff1602179055504281600501819055503373ffffffffffffffffffffffffffffffffffffffff16837fb365a335a229d85a20176fd53ed66f56c8a92d638ac56155efc4f96e1c66fe9c8442604051610527929190611347565b60405180910390a3505050565b600080600084815260200190815260200160002090506000816000015403610591576040517f08c379a0000000000000000000000000000000000000000000000000000000008152600401610588906112bb565b60405180910390fd5b8060060160009054906101000a900473ffffffffffffffffffffffffffffffffffffffff1673ffffffffffffffffffffffffffffffffffffffff163373ffffffffffffffffffffffffffffffffffffffff1614610623576040517f08c379a000000000000000000000000000000000000000000000000000000000815260040161061a906113e2565b60405180910390fd5b600073ffffffffffffffffffffffffffffffffffffffff168273ffffffffffffffffffffffffffffffffffffffff1603610692576040517f08c379a00000000000000000000000000000000000000000000000000000000081526004016106899061144e565b60405180910390fd5b8060060160009054906101000a900473ffffffffffffffffffffffffffffffffffffffff1673ffffffffffffffffffffffffffffffffffffffff168273ffffffffffffffffffffffffffffffffffffffff1603610724576040517f08c379a000000000000000000000000000000000000000000000000000000000815260040161071b906114ba565b60405180910390fd5b60008160060160009054906101000a900473ffffffffffffffffffffffffffffffffffffffff169050828260060160006101000a81548173ffffffffffffffffffffffffffffffffffffffff021916908373ffffffffffffffffffffffffffffffffffffffff1602179055504282600501819055508273ffffffffffffffffffffffffffffffffffffffff168173ffffffffffffffffffffffffffffffffffffffff16857fb4a1185473b458886a3d3056f172372438629a6f4fbfc04ad2dad0956b7b6926426040516107f791906109bd565b60405180910390a450505050565b60006020528060005260406000206000915090508060000154908060010160009054906101000a900473ffffffffffffffffffffffffffffffffffffffff169080600201805461085490610f2e565b80601f016020809104026020016040519081016040528092919081815260200182805461088090610f2e565b80156108cd5780601f106108a2576101008083540402835291602001916108cd565b820191906000526020600020905b8154815290600101906020018083116108b057829003601f168201915b5050505050908060030180546108e290610f2e565b80601f016020809104026020016040519081016040528092919081815260200182805461090e90610f2e565b801561095b5780601f106109305761010080835404028352916020019161095b565b820191906000526020600020905b81548152906001019060200180831161093e57829003601f168201915b5050505050908060040160009054906101000a900460ff16908060050154908060060160009054906101000a900473ffffffffffffffffffffffffffffffffffffffff16905087565b6000819050919050565b6109b7816109a4565b82525050565b60006020820190506109d260008301846109ae565b92915050565b6000604051905090565b600080fd5b600080fd5b600080fd5b600080fd5b6000601f19601f8301169050919050565b7f4e487b7100000000000000000000000000000000000000000000000000000000600052604160045260246000fd5b610a3f826109f6565b810181811067ffffffffffffffff82111715610a5e57610a5d610a07565b5b80604052505050565b6000610a716109d8565b9050610a7d8282610a36565b919050565b600067ffffffffffffffff821115610a9d57610a9c610a07565b5b610aa6826109f6565b9050602081019050919050565b82818337600083830152505050565b6000610ad5610ad084610a82565b610a67565b905082815260208101848484011115610af157610af06109f1565b5b610afc848285610ab3565b509392505050565b600082601f830112610b1957610b186109ec565b5b8135610b29848260208601610ac2565b91505092915050565b60008060408385031215610b4957610b486109e2565b5b600083013567ffffffffffffffff811115610b6757610b666109e7565b5b610b7385828601610b04565b925050602083013567ffffffffffffffff811115610b9457610b936109e7565b5b610ba085828601610b04565b9150509250929050565b610bb3816109a4565b8114610bbe57600080fd5b50565b600081359050610bd081610baa565b92915050565b60068110610be357600080fd5b50565b600081359050610bf581610bd6565b92915050565b60008060408385031215610c1257610c116109e2565b5b6000610c2085828601610bc1565b9250506020610c3185828601610be6565b9150509250929050565b600073ffffffffffffffffffffffffffffffffffffffff82169050919050565b6000610c6682610c3b565b9050919050565b610c7681610c5b565b8114610c8157600080fd5b50565b600081359050610c9381610c6d565b92915050565b60008060408385031215610cb057610caf6109e2565b5b6000610cbe85828601610bc1565b9250506020610ccf85828601610c84565b9150509250929050565b600060208284031215610cef57610cee6109e2565b5b6000610cfd84828501610bc1565b91505092915050565b610d0f81610c5b565b82525050565b600081519050919050565b600082825260208201905092915050565b60005b83811015610d4f578082015181840152602081019050610d34565b60008484015250505050565b6000610d6682610d15565b610d708185610d20565b9350610d80818560208601610d31565b610d89816109f6565b840191505092915050565b7f4e487b7100000000000000000000000000000000000000000000000000000000600052602160045260246000fd5b60068110610dd457610dd3610d94565b5b50565b6000819050610de582610dc3565b919050565b6000610df582610dd7565b9050919050565b610e0581610dea565b82525050565b600060e082019050610e20600083018a6109ae565b610e2d6020830189610d06565b8181036040830152610e3f8188610d5b565b90508181036060830152610e538187610d5b565b9050610e626080830186610dfc565b610e6f60a08301856109ae565b610e7c60c0830184610d06565b98975050505050505050565b7f4e487b7100000000000000000000000000000000000000000000000000000000600052601160045260246000fd5b6000610ec2826109a4565b91507fffffffffffffffffffffffffffffffffffffffffffffffffffffffffffffffff8203610ef457610ef3610e88565b5b600182019050919050565b7f4e487b7100000000000000000000000000000000000000000000000000000000600052602260045260246000fd5b60006002820490506001821680610f4657607f821691505b602082108103610f5957610f58610eff565b5b50919050565b60008190508160005260206000209050919050565b60006020601f8301049050919050565b600082821b905092915050565b600060088302610fc17fffffffffffffffffffffffffffffffffffffffffffffffffffffffffffffffff82610f84565b610fcb8683610f84565b95508019841693508086168417925050509392505050565b6000819050919050565b6000611008611003610ffe846109a4565b610fe3565b6109a4565b9050919050565b6000819050919050565b61102283610fed565b61103661102e8261100f565b848454610f91565b825550505050565b600090565b61104b61103e565b611056818484611019565b505050565b5b8181101561107a5761106f600082611043565b60018101905061105c565b5050565b601f8211156110bf5761109081610f5f565b61109984610f74565b810160208510156110a8578190505b6110bc6110b485610f74565b83018261105b565b50505b505050565b600082821c905092915050565b60006110e2600019846008026110c4565b1980831691505092915050565b60006110fb83836110d1565b9150826002028217905092915050565b61111482610d15565b67ffffffffffffffff81111561112d5761112c610a07565b5b6111378254610f2e565b61114282828561107e565b600060209050601f8311600181146111755760008415611163578287015190505b61116d85826110ef565b8655506111d5565b601f19841661118386610f5f565b60005b828110156111ab57848901518255600182019150602085019450602081019050611186565b868310156111c857848901516111c4601f8916826110d1565b8355505b6001600288020188555050505b505050505050565b7f4f6e6c792063757272656e742068616e646c65722063616e207570646174652060008201527f7374617465000000000000000000000000000000000000000000000000000000602082015250565b6000611239602583610d20565b9150611244826111dd565b604082019050919050565b600060208201905081810360008301526112688161122c565b9050919050565b7f426174636820646f6573206e6f74206578697374000000000000000000000000600082015250565b60006112a5601483610d20565b91506112b08261126f565b602082019050919050565b600060208201905081810360008301526112d481611298565b9050919050565b7f496e76616c6964207374617465207472616e736974696f6e0000000000000000600082015250565b6000611311601883610d20565b915061131c826112db565b602082019050919050565b6000602082019050818103600083015261134081611304565b9050919050565b600060408201905061135c6000830185610dfc565b61136960208301846109ae565b9392505050565b7f4f6e6c792063757272656e742068616e646c65722063616e207472616e73666560008201527f7200000000000000000000000000000000000000000000000000000000000000602082015250565b60006113cc602183610d20565b91506113d782611370565b604082019050919050565b600060208201905081810360008301526113fb816113bf565b9050919050565b7f496e76616c696420726563697069656e74000000000000000000000000000000600082015250565b6000611438601183610d20565b915061144382611402565b602082019050919050565b600060208201905081810360008301526114678161142b565b9050919050565b7f416c72656164792063757272656e742068616e646c6572000000000000000000600082015250565b60006114a4601783610d20565b91506114af8261146e565b602082019050919050565b600060208201905081810360008301526114d381611497565b905091905056fea2646970667358221220e83fa56ba4e96c1fdfa6e03c8a70c00a774a4028a120bc975940c328530775c864736f6c63430008180033",
  "linkReferences": {},
  "deployedLinkReferences": {}
}